:1000000012C02CC02BC02AC029C028C027C026C0BF
:1000100025C024C023C022C021C020C01FC01EC0D4
:100020001DC01CC01BC011241FBECFE5D4E0DEBF25
:10003000CDBF10E0A0E6B0E0E0E2F6E002C005903F
:100040000D92AA36B107D9F710E0AAE6B0E001C0D8
:100050001D92AB37B107E1F777D2E0C2D1CF83E091
:1000600084BB86E087BB11BA089520916A0090E0B6
:1000700002C09F5F2AE09817E0F320936A009093F4
:100080006B0008950F931F93CF93DF938C010AC0E9
:10009000C0E0D0E080E1E9DF2196C436D105D1F798
:1000A000015010400115110599F7DF91CF911F9173
:1000B0000F910895C79A81E090E0E4DFC798089512
:1000C0001F93182F81E090E0DDDFC59A12BBF2DFAD
:1000D0001F910895EF92FF920F931F93182F64E6DC
:1000E0006AD2482F282F30E08CE99FEF289F7001BB
:1000F000299FF00C389FF00C1124C701810F911D2E
:100100006AE070E064D2062F842F805DD9DF802FF3
:10011000805DD6DF105D1E0D86EF9FEF089F002DDE
:100120001124802F810FCCDF1F910F91FF90EF9052
:1001300008951F93182F82E090E0A4DF88B38F7991
:1001400088BB12BBB7DF1F9108958054F2DF08957A
:100150008058EFDF0895EF92FF921F93CF93DF93C4
:100160007C01C59A88B38F7388BB10E00BC081E017
:1001700090E088DF103111F480ECDBDF888182BBF6
:1001800099DF1F5FE701C10FD11D8881882379F7AF
:10019000DF91CF911F91FF90EF9008958FEF81BB7A
:1001A00087BB8FE090E06EDF88B38F7988BB88E3F0
:1001B000C0DF8EE0BEDF80E8BCDF089586B18368D3
:1001C00086B987B1806687B9089516B817B80895BB
:1001D0001F93182F10927400A89AA998C19AC298D8
:1001E00044DFA898A998C298C19888EC811B3DDF8C
:1001F0001F9108951F93182F10927400A99AA89820
:10020000C29AC19832DFA898A998C298C19888EC80
:10021000811B2BDF1F9108951F93182F81E080937E
:100220007400C19AC298A898A998812F1EDFA89837
:10023000A998C298C19888EC811B17DF1F91089577
:100240001F93182F82E080937400A89AA998C198F0
:10025000C298812F0ADFA898A998C298C19888EC03
:10026000811B03DF1F910895A898A998C298C1988F
:100270000895982F805A8F3540F4862F8055803509
:1002800020F488EC90E0A4DF0895903540F4862FA8
:100290008055803520F488EC90E0ACDF08959055CF
:1002A000903570F4862F805A8E3120F488EC90E0DF
:1002B000B3DF0895603520F488EC90E0C1DF089545
:1002C000D3DF089584B3846184BBA398A598AA9AC8
:1002D000AC98AB9A83E687B9369A3699FECF85B14A
:1002E000089584B3886284BBA298A498AB9AAD9811
:1002F000AC9A84E687B9369A3699FECF85B10895CF
:100300001092790010927A00DDDF80937900E9DFA6
:10031000682F80937A0080917900ABDF0895859BE8
:1003200012C0879B08C0869B03C08AE590E011C07D
:100330008AE590E018C0869B03C088E790E00FC074
:1003400088E790E010C0879B06C0869906C082E8C7
:1003500090E03EDF0895869B04C084E690E05CDF79
:10036000089584E690E06CDF089580B38B718093EC
:100370007800823019F486E990E02ADF80917800D5
:10038000803119F486E990E035DF8091780088307B
:1003900019F488E790E040DF809178008A3019F402
:1003A00088E790E04DDF80917800893009F45CDFC8
:1003B00008959A9B05C09B9908C0A89AA99807C060
:1003C0009B9B03C0A99AA89802C0A89AA99A9C9B33
:1003D00008C09D9B03C0C19AC29A0895C19AC29851
:1003E00008959D9B03C0C29AC1980895C29AC19A6C
:1003F0000895CF93DF9380E590E0EADE869902C00E
:10040000859B2BC031DFC0E0D0E089E12EDE219654
:1004100087E2C031D807C9F7C0E0D0E088E790E0B4
:10042000E9DE87E022DE219683E0C83ED807B1F7F7
:10043000C0E0D0E089E119DE219687E2C031D8071B
:10044000C9F7C0E0D0E084E690E0FADE85E00DDE9A
:10045000219683E0C83ED807B1F7DF91CF91089588
:10046000CF93DF9380E590E0B3DE879922C0FCDE76
:10047000C0E0D0E089E1F9DD219687E2C031D807FC
:10048000C9F7C0E0D0E088E790E0B4DE87E0EDDDBA
:10049000219683E0C83ED807B1F7C0E0D0E084E6FB
:1004A00090E0BADE85E0E1DD219683E0C83ED80722
:1004B000B1F7869922C0D8DEC0E0D0E089E1D5DD71
:1004C000219687E2C031D807C9F7C0E0D0E088E7BD
:1004D00090E090DE87E0C9DD219683E0C83ED80732
:1004E000B1F7C0E0D0E084E690E096DE85E0BDDDC7
:1004F000219683E0C83ED807B1F7859922C0B4DEC3
:10050000C0E0D0E089E1B1DD219687E2C031D807B3
:10051000C9F7C0E0D0E088E790E06CDE87E0A5DDB9
:10052000219683E0C83ED807B1F7C0E0D0E084E66A
:1005300090E086DE85E099DD219683E0C83ED8070D
:10054000B1F7DF91CF910895CF93DF9383E084BB20
:1005500086E087BB11BA16B817B88AEF90E001970A
:10056000F1F7AC9AAD9AC69AC79AC09AAA9AAB9A72
:10057000CAEFD0E0B69B0EC0B79B06C0B09B02C0CE
:10058000CEDEF8CF16DFF6CFB09B02C032DFF2CF5F
:10059000ECDEF0CFB79BEECFB09B02C061DFEACFBD
:1005A00086B1836886B987B1806687B9CE01019725
:1005B000F1F7A6DEDFCF991B79E004C0991F9617EB
:1005C00008F0961B881F7A95C9F78095089597FBC8
:1005D000092E07260AD077FD04D00CD006D00020C3
:1005E0001AF4709561957F4F0895F6F7909581956F
:1005F0009F4F0895AA1BBB1B51E107C0AA1FBB1F39
:10060000A617B70710F0A61BB70B881F991F5A959E
:10061000A9F780959095BC01CD010895F894FFCF7E
:0A06200030313233343536373839C3
:00000001FF
